:10A5520001007F0502007555030062250400335F88
:0CA5620005007C3906001DBD00007FF3E1
:0BAA7900FF127B6580FBC2AF020000F3
:087FF800010008670000002FE2
:04BF00004003E37F98
:1096E300C0D075D000752979752A00E52A2529F59A
:1096F300428542A07800E4F2D8FD78E37418F218AA
:10970300740293F218740393F21874E3F27817E473
:1097130093F2781CE52AF2052AA3A3A3A3E52AB4AE
:0897230007C9752A00D0D0220D
:109DC00012AB1512AB10F5F012809612990D75D0EA
:109DD00000E52A2529F5428542A0782118E2F6B847
:109DE00017FA78E0E2F58108E2F6E8B581F9D0D01B
:039DF000027BA251
:109F9700C3C0D075D000A881E6F218B8E0FAE58111
:109FA700F27817E6F208B821FA75D01812A72E1220
:0D9FB700A5FA12AB10F5F01280000208614F
:057FF300127B6580FB1C
:0BAA84002550FE127B65EEB550F92254
:107B6500852B2BC3C0D075D000A881E6F218B8E0EC
:107B7500FAE581F27817E6F208B821FAE517F52A51
:107B85002529F5428542A0782118E2F6B817FA783A
:107B9500E0E2F58108E2F6E8B581F9D0D022A881C6
:107BA50018E624FDF640B9081680B5752B01129824
:107BB5008750028004EEB550E52280E2D3301202F0
:0A7BC5008004EEB550F4752B012288
:0EA93600752B0112988750028003027B652268
:0EA94400129EB150028003027B65752B01222A
:10A67B00EE93600ECEF5F0129EB1AEF050010E02CD
:07A68B007B65D3752B012252
:0BAA8F00E52A2529F58375821EE022D0
:0DA9EC00E52A2529F58375821EE5F0F0228D
:0BAA9A00E52A2529F58375821FE022C4
:0DA9F900E52A2529F58375821FE5F0F0227F
:05AB1000E52C540F22AA
:04AB470085F02C2247
:0BAAA500E52A2529F583758216E022C2
:0DAA0600E52A2529F583758216E5F0F0227A
:10A88A00C083C08275837A75821EE0D082D083220B
:10A89A00C083C08275837A75821EF0D082D08322EB
:10A8AA00C083C08275837A75821FE0D082D08322EA
:10A8BA00C083C08275837A75821FF0D082D08322CA
:10A66300C042B40601B3500A2479F5428542A0786A
:08A6730020E2D0428542A02242
:04AB4B00752B012243
:04AB4F00752B01223F
:100FEC00C2AF754000754140754F4B755000754947
:040FFC0000D2AF224E
:10A72E00C2AFC28CC2A97532007533407540007538
:05A73E004140D2AF22F2
:10990D00C2AFC28CC2A975320D753300E58954F012
:10991D004401F589758CF8758A0075F004784B76DD
:10992D000808D5F0FA75F00478A876030876FF08D4
:10993D00760008760008D5F0F1D237D28CD2A9D2B4
:02994D00AF2247
:100D0000C0D0C0E0C042758CF875320EC2D3D2D4C8
:100D1000D54F48754F4B78B8E66004F4600116E58E
:100D2000596005F460021559E54A30900F20E70438
:100D300074818017046016046013800F30E7047418
:100D40000180080420E7060420E702F54A0550E583
:100D50005070080549E54970021549D0428542A006
:090D6000D0E0D0D0C041C0402217
:100E0000C0D0C0E0C042758CF875320FC2D3D2D4C6
:0E0E1000D0428542A0D0E0D0D0C041C04022E8
:100F0000C0D0C0E0C042758CF8753210C2D3D2D4C4
:0E0F1000D0428542A0D0E0D0D0C041C04022E7
:10100000C0D0C0E0C042758CF875320DC2D3D2D4C6
:0E101000D0428542A0D0E0D0D0C041C04022E6
:10700000209803C29932C0D0C0E0C298D211E55591
:10701000B4091AE599202711309A0EF551547FB41E
:1070200021028011B40D02800CD2E8800EE599C2D5
:10703000ACD2E88006755914753940D0E0D0D03212
:10704000209803C29932C0D0C0E0C298D211E5990D
:10705000202742309A3FC551A2E792D5547FB421F0
:1070600009E551547FB42A1F8036B40D1AE55154F6
:107070007FB40A0A740DA2D592E7F5518030B40DA1
:1070800006C216C2178024E551547FB42102801E27
:10709000B40D02801912A4618014D216C217800B9D
:1070A000E55133921730D501B39216029800D0E023
:0370B000D0D0320B
:10660000D23FD211202703309103C2CE32C0D0C076
:10661000E0C0F0758D00758B00D28EE58DB4500210
:10662000800250033091F4C28EC28F858D69858BB4
:106630006AE56AB44000500302670A75C800C2AC3C
:10664000C29C755500E569702BE56AB48002800232
:10665000501175CBFF75CA8075550875CDFF75CC87
:1066600080805075CBFF75CA0075550775CDFF75D5
:10667000CC00803FB402028002501175CBFE75CA77
:106680000075550675CDFE75CC008027B4040280D8
:1066900002501175CBFC75CA0075550575CDFC759A
:1066A000CC00800F75CBF875CA0075550475CDF810
:1066B00075CC00C2CFC2AC8555F0128000C29C756B
:1066C000C804748075F00730CFFDC2CFA29113D5F6
:1066D000F0F530CFFDC2CF30910EF551547FB4218B
:1066E00002801AB40D02801512A461E589540F448A
:1066F00010F589C28EC28FD2ACD2E88011755914C0
:10670000753940D2ACD29C75C800C2E8C2CED0F078
:05671000D0E0D0D03202
:10A46100C29CC2CA75CBFF75CAE875C83C7559FF55
:10A47100755100755509753900753D007598502263
:10980000D29DC2BFC2E8753C00753D40E551547F12
:10981000B42A1CD20A75380A7539CD7513717511C1
:1098200071C224C223C225C212D213C2998010C2AF
:109830000AC0F08555F0D2F7128096C224D0F0D03D
:04984000E0D0D03272
:109C07007017C2ACC29CC2E8C2BF75C800753C00E1
:109C1700753D40128096C22422C2ACC2E8E5895441
:109C27000F4410F589C28FC28E753870753C661265
:0B9C3700A461D2BCD2ACD2BFD2E822A4
:10A32F00E538B47017E559701112A461E589540F1F
:10A33F004410F589C28EC28FD2E8D322E5518555DC
:03A34F00F0C32236
:1011BA007E0041444D4E0000000000000000000087
:1011CA00000061646D6E0000000000000000000075
:1011DA000000010001FFFFFF7E0147454E3100007C
:1011EA000000000000000000000067656E3100008A
:1011FA0000000000000000000000010101FFFFFFE5
:10120A007E0247454E320000000000000000000048
:10121A00000067656E320000000000000000000058
:08122A00000001020101FFFFB9
:10A6C000F582852F83E055F0C5F0D313C5F0400324
:06A6D0000380F5FE2222CA
:10A15000F582852F83E0A8F0C5F0F4C5F055F0C076
:10A16000E088F0EEC5F0D313C5F040032380F55826
:0AA17000D0F045F088F0F002AA20BC
:08AAE400F582852F83E0FE22BC
:0AAAC600F582852F83EEF002AA202E
:0FA8FA00F582852F83E0C0E0A3E0F583D08222B2
:0FA90900C083C582852F83F0A3D0E0F002AA207F
:0DAA1300F582852F83E0F6A308D5F0F92227
:0FA91800F582852F83E6F008A3D5F0F902AA2077
:0DAA2000D232758200852F83E04480F02241
:06AB0A00E52FC394532265
:0CAA6100B40401B34001E42453F52F229B
:10086E00C232752F53124DDA747C122962401D7AF2
:10087E00538583F01208C97A541208C9BB0302804B
:10088E000B905300E04480F0905400F0746C1229E9
:10089E006240087A558583F01208C9745C12296289
:1008AE0040087A568583F01208C9744C12296240AA
:1008BE00087A578583F01208C9801C85F0837582EB
:1008CE0000740893FB85F083E4938A83F0D582F558
:1008DE007582087403F022747A122962500D905CAE
:1008EE0000747AF0905C10E4F08010AA8375820098
:1008FE008A83E49375835CF0D582F5747E12296247
:10090E0050030209A3758210E4936003F470028011
:10091E006C740193F5F0E5F07025740293B4411AEE
:10092E00740393B44414740493B44D0E740593B4C9
:10093E004E08740693B400028005742393F5F0C03C
:10094E0083C0827A00904008E5F060087428121186
:10095E0008D5F0FA8583F0A882D082D0837B28E474
:10096E00930582C082C08385F0838882F0A385833D
:10097E00F0A882D083D082DBE6E5828004E5822473
:10098E0028F582700D740293700B740193F58375C4
:10099E008210020916C232C233904008742312111B
:1009AE0008E0600B7400F090400874FEF0D235221F
:1009BE00C083C082C0F075F0059053FFE582F0D57C
:1009CE0082FC05837582FFE582D5F0F290530074A8
:1009DE007C4480F00583F00583746C4480F00583BD
:1009EE00745C4480F00583744C4480F0D232905392
:1009FE0000E04480F0D0F0D082D083229040087482
:100A0E0022121108E0B4EF11C083C082122D8CD0D7
:100A1E0082D083D23374EFF4F075F00090C000747E
:100A2E000093F4700375F080122C3840028023B4CA
:100A3E00010280028019C083C082122D8CD233D065
:100A4E0082D0835002800875F080122C385003D368
:100A5E008009C232C233C234C235C3227583BFE4A9
:100A6E0024FCF58274039330E707E58270F2D3809D
:100A7E0010E493F8740193F9740293FA740393FBE0
:100A8E00C32290BF0074039320E70BE5822404F584
:100A9E008270F2D38028E582540370F7EB547FC046
:100AAE00E0EAC0E0E9C0E0E8C0E0C2D5D0E0122E36
:0F0ABE000072D592D5A3E582540370F0A2D52221
:10296000C322C0F0F5F090C000E493600AF4601058
:10297000E493B5F002800C0583E583B4FCEB15838A
:10298000D38001C3E493D0F022E9C0E0C0F0C0E0FE
:10299000C0F090598FE0F5F0905990E0F58285F005
:1029A00083D0F0D0E0A913E9B511028013E709B98B
:1029B000A4027971547FB40D028005F0A3D5F0E72D
:1029C000E5F0D0F0A9F0600EC9C399C9F5F0740024
:1029D000F0A3D5F0FBE9C9D0E0C922C0E0C0F0E81F
:1029E000C0E0C083C082904000747EF075F000901B
:1029F000400874FFF0A3E5F0F004F5F0B47802802D
:102A000007742712110880EA7800756D40756E080A
:102A10009011BAE893856D83856E82F0A385836DEE
:102A200085826E08B878E99053A0740CF0A3741FE7
:102A3000F0A374FF75F00EF0A3D5F0FB9053B174C2
:102A40000DF0A3741FF0A374FF75F00EF0A3D5F082
:102A5000FB9053D6740EF0A3741FF0A374FF75F0AF
:102A60000EF0A3D5F0FB9053E6740FF0A3741FF0A3
:102A7000A374FF75F00EF0A3D5F0FBD082D083D005
:102A8000E0F8D0F0D0E022C0427542588542A0F96B
:102A9000E8C0E07858E5F0F208E583F208E582F254
:102AA00008D0E0F2C06D756D00785EE583F208E550
:102AB00082F2C083C082A3E0D082D083F5F070336D
:102AC0007402121108E0B44116A3E0B44411A3E06B
:102AD000B44D0CA3E0B44E07A3E0B400028014751B
:102AE0006D01785EE2F58308E2F582742312110825
:102AF000E0F5F0747E1229625028F460057401023A
:102B00002C1BB900057404022C1B747E122E00507D
:102B1000057402022C1BE493B47E02800574030248
:102B20002C1B758210E4936032F4700BB9000574AD
:102B300004022C1B022BDB7401937003742393B5E6
:102B4000F019E9C0E07400122E005007D0E07402C2
:102B5000022C1BD0E0F97003022C16E5822428F524
:102B60008270C2740293F46007740193F58380B29B
:102B7000C08374FF122962F46007D0E07401022C54
:102B80001BD0E0C083C583758201122E00E583D07F
:102B90008350057402022C1BC083F5837400758278
:102BA00002122E00E583D08350047402806DC0832E
:102BB000F583758202E493AA83D083600474038052
:102BC0005AC0838A83758201E493D083B5830280DF
:102BD0000474038046758200022B0AAA83AB8278B4
:102BE0005EE2F58308E2F58275F028E0547EF0F9A4
:102BF000A3785EE583F208E582F2E98A838B82128C
:102C00002E000B785EE2F58308E2F5825004740230
:102C10008009E0D5F0D97400C38001D3D06D785815
:102C2000C0E0E2F5F008E2F58308E2F58208E2F898
:102C3000D0E0D0428542A022C0427542588542A0D1
:102C4000E8C0E07840E5F0F208E9F208EAF208EBC3
:102C5000F208ECF208EDF208E583F208E582F208EA
:102C6000D0E0F2120F1EE5F0600E905300E04480B9
:102C7000F0547F0583B44CF5122D385003022D0E0D
:102C8000905300E020E7028047E0547FF012296271
:102C90005008F460247401022D0E7400122E0050AE
:102CA0000474028069E49360047403806174FF1209
:102CB0002962F4600474018055AA837582007583CB
:102CC00053E08A83122E00500474028041D582EEB4
:0E2CD000120F2F400280A9120F1EA8F075F0FF
:102CDE0078904008E0600BB800028003B4FF03B4A4
:102CEE00FE13700574FFF07400122A875007B404A7
:102CFE00028002800B7428121108D5F0D7C3800110
:102D0E00D37840C0E0E2F5F008E2F908E2FA08E212
:102D1E00FB08E2FC08E2FD08E2F58308E2F5820812
:102D2E00E2F8D0E0D0428542A022103302804A74ED
:102D3E007A1229625007F460237401803F740012E6
:102D4E002E00500474028034E49360047403802CCB
:102D5E0074FF122962F4600474018020AA837582C4
:102D6E000075835C747AF075835CE08A83122E00A2
:102D7E00500474028006D582EEC38001D322C08334
:102D8E00C082C0E0C0F0E8C0E0E9C0E09059B3E511
:102D9E0081F0A378E0E6F008A3B800F97581E09021
:102DAE00C000E493F470150583E58370F590C000C0
:102DBE00E493F47007A3E58370F68016C0A8C2AF43
:102DCE0043A220780E790190C00012FFF053A2DFCB
:102DDE00D0A89059B3E0F581A378E0E0F608A3B847
:102DEE0000F9C3D0E0F9D0E0F8D0F0D0E0D082D036
:102DFE008322C0E0C0F085E0F0E8C0E0E9C0E0C0AA
:102E0E0083C0829059B3E581F0A378E0E6F008A381
:102E1E00B800F9D082D0837581E0E5F0C0A8C2AFCA
:102E2E0043A220780E790212FFF053A2DFD0A8F54C
:102E3E00F09059B3E0F581A378E0E0F608A3B8006E
:102E4E00F9D082D083E5F0C3600DC083C0829000BC
:102E5E0000F0D082D083D3D0E0F9D0E0F8D0F0D01B
:022E6E00E02260
:0300000001A60155
:05000300C031C03022F5
:01000A0001F4
:05000B00C033C03222E9
:05001300C035C03422DD
:05001B00C037C03622D1
:05002300C039C03822C5
:05002B00C03BC03A22B9
:05003300C03FC03E22A9
:06003B00C03DC03C223272
:100080007830760008764008B842F722C0F075F064
:1000900000D5F0FDD5F0FDD5F0FD75F099D5F0FD5A
:1000A000D0F0D5E0E72275A80075E8E0E4F5D0537C
:1000B000A2FE438E037581DF78007400F6D8FD78C8
:1000C00030760008764008B842F790000074FFF0E0
:0900D000A3E58330E7F70201000B
:10010000212507012120212021202120212021201B
:1001100021202120212021202120212021202120D7
:10012000C2AF020000C2AF020800741275F00012E4
:050130009006028000B2
:0207FC002100DA
:100800008004383880F6C2AFD2D3D2D47542FF8587
:1008100042A07581E078FD74A5F608F608F6E47844
:1008200020F608B830FB75480012086ED2AF756F1D
:100830000012115A20E409536F1F23C454E0426F81
:10084000129B50120CFF75F00512AB47128000127C
:100850000FEC12A6EC12A30B90A5521296E3029D88
:0E086000C0120A0A02000090A5521296E3226E
:0AAAD000C2AFD2E475F00002900658
:0C11AE001B5B313B3148001B5B324A00E8
:10A30B00C2AFE4F55AF55BF55CF55DF560F561D22E
:10A31B0018C219C21AC21BC21CC21DC21EC21FC246
:04A32B0020D2AF226B
:10804C00E55B455A7040D0E0F55BD0E0F55A301E48
:10805C00147E009011AE12A67B50F87E009011B5E4
:10806C0012A67B50F8301D0E7E0D12A94450FB7EDB
:10807C000A12A94450FBD218E55AC0E0E55BC0E0F7
:0A808C00755A00755B00752B012288
:10737200E55B455A6020752B01301503027411300C
:107382001202800620181402740F1298875002808D
:107392000F7EFFD3807C7EFFD380777E06D3807200
:1073A200EE547F302109C221B45B2FD222805E309D
:1073B200222CC222B430004005B43A0040EDB44160
:1073C200047E018020B442047E028019B443047E0C
:1073D200038012B444047E04800B7E1B8007B41B1E
:1073E20004D2218028855C82855D83740493F5F044
:1073F200740593F58245F0600D85F0837409C0E051
:107402007474C0E0E473EEFEF564D3800580037EFD
:0674120080D3752B01225E
:100EED00E55B455A700AC21AC219756100022E706F
:030EFD0074FF225D
:109FC400E55B455A6003022EA312A30B7E00909F0B
:109FD400DD12A67B50F802755544737050757452A7
:0D9FE400736D3A204261642043414C4C00F3
:109C4200E55B455A7031E58245837010127B6530C1
:109C520013FA12AB10F5F0128096801DC219D21AB7
:109C6200C221C222756100201D0A301E0302781A29
:0A9C720074818005026B3974FF2233
:10A7F800E55B455A700AC219C21A756100027842AF
:03A8080074FF22B8
:106B3900E55B455A6003026C1DD0E0F55BD0E0F5DA
:106B49005A85825C85835D127B653013FA127B65F9
:106B5900200A2412AB10D2E7F5F0128096127B6559
:106B6900301503026C1D3026F47E0D12A94450FB2A
:106B79007E0A12A94450FB12A271855C82855D834D
:106B8900E493A37003026C15F5F0E493F58285F0A4
:106B990083E493B48421A3E493A3B4FF09E493A306
:106BA9005521705980115521F5F0E493A3600465CE
:106BB900F0704AE5F0604612102C30E740B48002CC
:106BC900801088F0C0F0752B01F5F012AA06D0F0FC
:106BD900A8F0855C82855D83A3A3E493F5F0A3E423
:106BE90093FDA3E49385F083F5F08D827D00E49312
:106BF900602485825C85835D8813026B80E55C2453
:106C090005F55CE55D3400F55D026B83200A05D26C
:106C19001B022E707DFFE55AC0E0E55BC0E0755AA6
:066C290000755B00ED2286
:102E7000E55B455A7008D0E0F55BD0E0F55A8582F5
:102E80005E85835F301B1A85825C85835D7E0D12B3
:102E9000A94450FB7E0A12A94450FB75634B0232D1
:102EA00090804C756200201905301A028E62E5F0A0
:102EB000B40123E561701F855E60855F6185825E78
:102EC00085835F856082856183E493A370FB85823F
:102ED000608583618019855E82855F83E493A3703A
:102EE000FBE5F0B4020302330B85825E85835F75D8
:102EF0002B013015030232F4855E82855F83E493F3
:102F0000A385825E85835F20E714301B030232466F
:102F1000301C030232C8FE12A94450FB80D1B48495
:102F200026E493A3B4FF09E493A35521700F80B95D
:102F30005521F5F0E493A3600765F060AC02330619
:102F4000E5F070A5023306B4870D201D03301A0585
:102F5000AE62025A5B8098B48211E493A385825ECC
:102F600085835FFE12A94450FB8084B48327E493D9
:102F7000A385825E85835FFE12A94450FB855E8235
:102F8000855F83E493A385825E85835FFE12A944F7
:102F900050FB022EEFB4881CE493A385825E8583E8
:102FA0005F2550FE127B653015030232F4EEB550FA
:102FB000F3022EEFB48914301D0E7E0D12A9445079
:102FC000FB7E0A12A94450FB022EEFB48A1B301E6E
:102FD000157E1B12A94450FB7E5B12A94450FB7E58
:102FE0004B12A94450FB022EEFB48B028003023037
:102FF0007320190C301A09E562B41304E56160030B
:10300000201E05A3A3022EE97E1B12A94450FB7EBD
:103010005B12A94450FB855E82855F83E493A385A0
:10302000825E85835FF565C412AAB0FE12A9445082
:10303000FBE56512AAB0FE12A94450FB7E3B12A923
:103040004450FB855E82855F83E493A385825E8521
:10305000835FF565C412AAB0FE12A94450FBE56572
:1030600012AAB0FE12A94450FB7E4812A94450FB9C
:10307000022EEFB48C45201E04A3022EE97E1B1203
:10308000A94450FB7E5B12A94450FB855E82855F9C
:1030900083E493A385825E85835FF565C412AAB03D
:1030A000FE12A94450FBE56512AAB0FE12A94450D5
:1030B000FB7E4112A94450FB022EEFB48D45201E29
:0A30C00004A3022EE97E1B12A944AE
:1030CA0050FB7E5B12A94450FB855E82855F83E4D8
:1030DA0093A385825E85835FF565C412AAB0FE124A
:1030EA00A94450FBE56512AAB0FE12A94450FB7E22
:1030FA004212A94450FB022EEFB48E45201E04A3AF
:10310A00022EE97E1B12A94450FB7E5B12A9445091
:10311A00FB855E82855F83E493A385825E85835FF8
:10312A00F565C412AAB0FE12A94450FBE56512AABD
:10313A00B0FE12A94450FB7E4312A94450FB022E52
:10314A00EFB48F45201E04A3022EE97E1B12A94468
:10315A0050FB7E5B12A94450FB855E82855F83E447
:10316A0093A385825E85835FF565C412AAB0FE12B9
:10317A00A94450FBE56512AAB0FE12A94450FB7E91
:10318A004412A94450FB022EEFB4FD25740193C0EA
:10319A00E0E493C0E0A3A385825E85835FAE627498
:1031AA004220190C74C0201A077440201E02744170
:1031BA0022B4FF2FE561602085605E85615F7561DD
:1031CA0000201911301A0EE562B41303022F50B40D
:1031DA001203022F50022EEF301A03022F507DFFE6
:1031EA000232F6B48006201B2D022EEFB48117E4BA
:1031FA0093A385825E85835F752B01F5F012AA067B
:10320A00201B13022EEFFD54F0B48003022EEFEDC3
:10321A00201B6E022F16E56320E708B40400400362
:10322A00022EEF855E82855F83E493B42009A3852D
:10323A00825E85835FE4937019022EEF6048B40AB8
:10324A000E75634C7E0D12A94450FB740A8032B489
:10325A000D237563497E0D12A94450FB7E0A12A9FB
:10326A004450FB7E2012A94450FB7E2012A94450F0
:10327A00FB7420800C30E703022EEFB42B03022EDE
:10328A00EF1563022F16855C82855D83E493A36044
:10329A0010F55FE493A3F55E85825C85835D022E5B
:1032AA00EF85825C85835D7E0A12A94450FB855CAA
:1032BA0082855D83E493700114C21BFD802EB47E67
:1032CA0008740512AA84022EEFB45E1BE493A38548
:1032DA00825E85835F600EB47E02800BB45E0280DC
:1032EA0006541F8002740D022F167DFFE55AC0E0B6
:1032FA00E55BC0E0755A00755B00ED2275F08580CC
:10330A000675F0878001A3E493301B02604430E71E
:10331A00F5B5F002803CB4FD04A3A3802EB4FE04EC
:10332A007403801CB4FF028029540F0404838010A4
:10333A000001010202000000010000020101010176
:10334A002582F582E43583F58380BBA3E49370FB81
:05335A0080B4022EE921
:10781A00E55B455A60028065D0E0F55BD0E0F55A39
:10782A0085825C85835D752B017E1212AAA5F5639C
:10783A0075F0FF12AA068029E55B455A6002803D71
:10784A00D0E0F55BD0E0F55A85825C85835D752BC7
:10785A00017E8112AAA5F56375F00012AA06025AE2
:10786A004B127B653013FA127B6512AB10F5F012DE
:10787A008096E412A298C224D225025A4B7E807DB9
:10788A00FFC225E55AC0E0E55BC0E0755A00755BAA
:03789A0000ED22DC
:105A4B00E55B455A7008D0E0F55BD0E0F55AC21F14
:105A5B00301F03025B543019047E098015752B012E
:105A6B0012AAA5B4FF02800AEEB48103025B5402B2
:105A7B005B58127B65301503025BAFEEB40618C2A0
:105A8B0018D219752B018563F012AA0675630012E3
:105A9B009FF16006025B65B409350563129FF170D7
:105AAB001074F855632408F563129FF17003756346
:105ABB0000301918E5637014C219752B0112AAA5D1
:105ACB00F56375F0FF12AA067E12808A025B65B43D
:105ADB0008211563129FF170F3E5630470EC12A6B5
:105AEB00921423232354F8F563129A121454074289
:105AFB00638067B4010FE563C39408F563129FF1EC
:105B0B007058025A61B4020EE5632408F563129FC4
:105B1B00F17047025A61B40312E5630454075363EF
:105B2B00F84263129FF17032025A61B40412E563BA
:105B3B001454075363F84263129FF1701D025A61AC
:105B4B00B40D03025AA5B412047E09800D752B0106
:105B5B008563F012AA067DFF804E129FF1700280C2
:105B6B0043E4933019027023201D297001F4B4FF14
:105B7B000974019355217013801A5521F5F07401A6
:105B8B0093600465F07004E5F07009EEB412027EC8
:105B9B0009025A61740293F5F0740393F58285F050
:105BAB0083022E707E807DFFC225E55AC0E0E55B47
:0A5BBB00C0E0755A00755B00ED2292
:109FF100129A12601E14F5F0E5635407B5F001B32F
:10A00100501123F5F093600BC5F00493F58285F0B0
:0DA01100838005E4F582F583E58245832216
:10A69200855C82855D83740293F5F0740393F58281
:07A6A20085F083E493A3227D
:109A1200855C82855D83740293F5F0740393F5820D
:109A220085F083E493A3602214F5F0E56303030356
:109A3200541FB5F001B3501223F5F093C5F004930F
:109A4200F58285F083E493A38005E4F582F5832211
:0D101F0054070483220102040810204080C1
:10A27100A813E8B51102801CE6547FC36016B42010
:10A28100028008B40D02800CB42C0808B8A4E3784D
:07A291007180DFD388132266
:10A1A400A813E8B51102801EE6547FC36018B420DA
:10A1B400028012B40D02800EB42C02800808B8A4E8
:09A1C40002787180DDD3881322BA
:10A2E600A813E8B51102801CE612A4DEB40D0280A4
:10A2F60013B42002800EB42C028009F608B8A4021A
:05A30600787180DE22E9
:109E5500E9C0E0A913E9B511047600801DE709B949
:109E6500A4027971547FB40D02800FB42001E4B4CB
:0E9E75002C01E4F6086003D5F0DBD0E0F92202
:1097BA00E9C0E0A913E9B51102803605F0E9B5114F
:1097CA0003E48015E709B9A4027971547FB40D0145
:1097DA00E4B42001E4B42C01E4F583D5F003E48079
:1097EA0008E608547FB40D01E4B5830570CFD38031
:0697FA0001C3D0E0F922DA
:10A6D600E5F06011E612A4DEF6600AB40D0280050C
:06A6E60008D5F0F0182277
:10994F00E9C0E0A91305F0E9B51105758300801092
:10995F00E709B9A4027971547FB40D027400F5833D
:10996F00D5F00474008009E608547FB40D0274002A
:10997F00B5830970D2E5837003D38001C3D0E0F9BA
:01998F0022B5
:10102C00A813E49330E709E8B511028024E66021A7
:10103C00E493A320E749B42B0280F5F5F0E8B51151
:10104C00028003E6700FE5F0B42006E493A320E7DA
:10105C002EE4D38031E6547FB461004007B47B00AA
:10106C005002545FB5F00808B8A4C5787180C1C5AA
:10107C00F0B40A07740DB5F00280ECC5F0E5F0B4DD
:07108C008103E493A3C322DA
:10109300547FB461004007B47B005002545FF5F005
:1010A300BE0013EE0E9320E715B5F0028029EE0E75
:1010B3009330E7FA80EDBEFF18B4200050207E0085
:1010C300801AB40A08740DB5F0030E800A7EFF80FF
:0F10D3000BEE93B5F0EC0EEE9320E702E5F02262
:10A4DE00547FB46100400AB47B00500D545FC380BA
:0DA4EE000BB441004006B45B00B3500022E7
:1010E200F5F08005D36009A3A3E493A3B5F0F5C39B
:0D10F200E493A3F5F0E493F58285F08322EA
:109E8300547FB461004007B47B005002545FB43088
:109E9300004019B43A005005C394308010B4410017
:0E9EA300400AB447005005C394378001D32213
:0BAAB000C3C2D6540FD424F03440225F
:0910FF00E493A3F608D5F0F822F1
:0F110800C0E02582F582E5833400F583D0E02234
:010CFF0022D2
:05AB1500C29CC2AC224D
:10800000C29CE5F0540F83800E0080C0E0F0F8FCC5
:10801000FEFFFFFFFFF8F8F58DF58BE5F0540F83B9
:10802000800E000000000000000080018180000040
:1080300053877FE589540F4420F589C2ABD28EC2A5
:0C8040009FD29ED29DD299C298D29C2261
:08AAEC003098FDC298E59922A3
:0CAA6D003099FDC29970027430F59922F6
:0EA95200E493A3600512AA6D80F63099FD22F1
:10A6EC00C2AF751371751171751471C212D213C288
:06A6FC0016C217D2AF22C6
:10A5FA00C2AFC2ACC2BC12AB157538007539407512
:0BA60A001371751171751471D2AF222D
:10809600C2AC75380A7539CD30F70675380B7539A7
:1080A600EE752E00752D00751371751171751471AD
:1080B600C226D224C223C22530F608A2F59216A201
:1080C600F49217E5F0540FF5F0128000C212D213A5
:0980D600C299C298D2BCD2AC22BE
:10A29800C0A8C2AC8511F07513717511716004F511
:10A2A80013F511851114C226C212D213C299C2988D
:07A2B800D0E0A2E492AC2209
:109D2300C0F0C0A8C2ACF5F0A813E67005E8F511C1
:109D3300F514A811E5F06003E0800193A3F608B8D9
:109D4300A402787170EE88118814D226D0E0A2E4C0
:059D530092ACD0F022EB
:1098440020AC0122C2AC75380A7539F9752E007541
:109854001371751171751471D226D224C221C222DA
:10986400C212D213C299C298D2BCD2ACC0E0E5F005
:109874002471F51104F52DD0E0787112AA13C226D3
:03988400D2992254
:100ACD00309824C0D0C0E0C2D3D2D4C298D211A7DE
:100ADD0099E904B4A4027471B513028003F9D2121A
:100AED00D0E0D0D0309904C299D21332C0D0C0E03A
:100AFD00C2D3D2D4209803020BA5C298D211E52EF1
:100B0D006004E5998011E59920260C547F30210968
:100B1D00C221B45B04D222807C302204C2228075B3
:100B2D00B47F02740830250FB45B028068B45D0297
:100B3D008063B42C02805EB42005302502805640BF
:100B4D0003F78039B41B04D221804AB40902800313
:100B5D00B40D0CD226770009F7D212E9FC8036B419
:100B6D000819E9B51302802DB4710274A414F9FCAF
:100B7D007700302420752E0210131D8018E904B55E
:100B8D002D047700800FF9202403FC8008B5140292
:100B9D008003101303309944C299E52E600F8380B2
:100BAD0004082008006030F599052E802FECB51152
:100BBD00028027C011F904B4A4027471FCE7B420BB
:100BCD0000500AD011EC14FCF9C0118006700274AB
:100BDD0031F599D0118005752E00D213D0E0D0D00B
:100BED0032C0D0C0E0C2D3D2D42098028077C29850
:100BFD00D211A799302604D2128067E7547FB47FB3
:100C0D00027408B4200530250280576055B40D08D4
:100C1D00D2267700C224802DB411028045B4130270
:100C2D008040B41B02803BB4081BE9B5130280322F
:100C3D00B4710274A414F9FCC212302425752E026D
:100C4D00101322801DE904B4A4027471B51304D2EB
:100C5D0012800FF9202403FC8008B51402800310C4
:100C6D001303309952C299E52E6011838006082036
:100C7D0008002A00603CF599052E803BECB5110269
:100C8D008033C011F904B4A4027471FCE730231849
:100C9D00700C740D30161120170ED2E7800A547F98
:100CAD00B40D03E78002742A70027432F599D011E5
:0C0CBD008005752E00D213D0E0D0D0329C
:10A1CD00C0A8C2ACE51314B47007E539B4CD117451
:10A1DD00A3B51102800AF513F8EEF6D212D3800161
:09A1ED00C3D0E030E402D2AC2240
:10988700E539B4CD1EE513B511028016F804B4A46A
:10989700027471FEE6CEF513C212B511028002D230
:1098A70012D322E52D6007C330261702AABBE513A2
:1098B700B51102800DF804B4A4027471FEE6CEF56A
:0398C70013D32296
:0BAABB00A2125006C212A811E6FE22F3
:109EB100E5667002156620AC051099088003101341
:109EC10003C38019EE301608A2D0201707B380040F
:0E9ED100301703D392E770027433F599D32251
:100F1E00C083C082C0E0C0F0E8C0E0E56F541F801F
:100F2E001DC083C082C0E0C0F0E8C0E0E55705E018
:100F3E00800CC083C082C0E0C0F0C8C0E0E8F5F00D
:100F4E00E56F54E070028022E56F541FB5F0028009
:100F5E00025017C0F0E56FC4035407F5F0E56F5467
:100F6E001F25F0D0F0B5F0005003D3806505A29098
:100F7E005300C0F0856FF053F01FE557C395F00591
:100F8E00E0D0F02583F58315A29053007800E0A3FE
:100F9E0005A2F0A315A2D8F6E5F0F557D20EB401CE
:100FAE0002C20ED20DB55802C20D05A29053001505
:100FBE00A2905300856FF053F01FE557C395F005CF
:100FCE00E02583F5837800E0A305A2F0A315A2D84F
:0E0FDE00F6C3D0E0F8D0F0D0E0D082D083226D
:10335F00C22DC22EC22FC230D231E47821F208B86A
:10336F0071FB75200074FD7863F27864F274FF7856
:10337F005175F010F208D5F0FB783D75F004F208A6
:10338F00D5F0FB783575F004F208D5F0FBE4783210
:10339F00F27833F27831F2F47825F274FDC0E0C0A0
:1033AF00F0121147A2F2D0F0D0E0500274FD786510
:1033BF00F208F212A8CAE5502404FE127B69EEB59A
:1033CF0050F9127B69E5666003D566F678227407BB
:1033DF00F27821745EF2782374FFF278247406F287
:1033EF00127B69E5666003D566F67824E214F27005
:1033FF000BC312A56E7825E4F20234C1127B69E586
:10340F00666003D566F612A702403C129EDF40D0DD
:10341F00C22FB460005002D22F129F0D40C2129CD7
:10342F00B540BD7834F2A2E492057821E2F5F07848
:10343F006A7401F2748018F27A02D204127F554036
:10344F009FD312A56E8005129A924094127B69E564
:10345F00666003D566F67821E2F5F078697408F2B4
:10346F007A01D204D202127F55404778697A081246
:10347F009DF3403EE568703A7869E265F070330875
:10348F00E26408702D08E2540F6401702508E27899
:10349F0039F2783D200507B48400400C8005B4F460
:1034AF0000400574FEF280050403547FF278257402
:1034BF00FFF27825E2600414F28005783D74FFF284
:1034CF00782274FFF27821745E302F02743EF27806
:1034DF0023740FF27821E22402F275F066302F0385
:1034EF0075F046B5F001B350217822E204F278244A
:1034FF007406F2127B69E5666003D566F67824E2FE
:10350F0014F27009C312A56E80CA0235CB127B6903
:10351F00E5666003D566F612A7024055129EDF409E
:10352F00D220300FF5F07822E27008A2F272F192F9
:10353F0031D230129A92500D600B540F64087005FF
:10354F00129F0D40AE1299904016129CB540A4FAEE
:10355F007822E254032435F8EAF2D312A58A8009BF
:10356F00129F0D408EC312A58AD312A56E800780BD
:10357F008212999040F9127B69E5666003D566F671
:10358F00129CB54013FB540FFA7822E254032435F2
:10359F00F8E254F04AF280030234E3127B69E566E5
:1035AF006003D566F67822E254032435F8E26B54B3
:1035BF00F06006E2440F129A590234E3782274063F
:1035CF00F278217450F278247406F2127B69E56662
:1035DF006003D566F67824E214F27009C312A56E63
:1035EF00C22D0236D3127B69E5666003D566F612EB
:0735FF00A7024027129EDF26
:1036060040D2C22EB480004002D22E7821E2F5F0DC
:1036160078697410F27A01D204127F5540B6D3123B
:10362600A56E8005129A9240AB127B69E56660032F
:10363600D566F6302D08748375F083126E7C78217A
:10364600E2F5F0786BC0E0C0F0121147A2F2D0F0BC
:10365600D0E0400B7966E3F21819E3F21880097995
:1036660065E3F21809E3F2187420F27A03D2041221
:103676007F55401BC22D302E167821E2F5F0786A70
:103686007967E3F2187480F27A02D204127F551237
:103696007B69E5666003D566F67821E2F5F0786920
:1036A6007402F27A01D204D202127F55401F786961
:1036B6007A04129DF34016E56870127869E265F0A7
:1036C600700B08E26402700508E27861F27867E43C
:1036D600F2E5497008E550B40801B34006783DE2CA
:1036E600B4FF0A740275F002126E7C807AB4FE236F
:1036F60078677411F274AA75F0A4C0E0C0F01211D4
:1037060047A2F2D0F0D0E05005744775F049126E2A
:103716007C80547839E2C0E0C0F0121147A2F2D0A2
:10372600F0D0E04038B44E005033B40201B340202C
:103736002402030303B48000500A540F8017540F69
:1037460044308011540F4450800B540F4480800540
:10375600E480027450C4D207126E29800A2404033E
:103766000303541F126E0612116D30E763E54A30EB
:10377600E7067861E220E758B40101B3500878689B
:10378600E2C2E1F2804AB41801B3501A7862E4F258
:10379600740275F002126E7C7868E220E10664031A
:1037A600F2754800802AB47801B350247862E2703A
:1037B6000C04F2748375F083126E7C8013B40108D6
:1037C60004F2124DDA120A0A741075F010126E7CA9
:0A37D600E5486003126E290233D1AA
:10A70200C0F07822E212101FF5F07832E255F0D351
:06A712007001C3D0F0222B
:10A56E00C0F07822E212101F4001F4F5F07832E2CA
:0CA57E00400455F0800245F0F2D0F022BD
:10A58A00C0F07822E212101F4001F4F5F07833E2AD
:0CA59A00400455F0800245F0F2D0F022A1
:109EDF00129A9250026026FA7822E25407FB242944
:109EEF00F8EAF2EB12101FFB7831EAB4400050058C
:0E9EFF00E24BF28006EBF4FBE25BF2EAC322D8
:109F0D00C0F07821E2F5F078697410F27A01D2048C
:109F1D00D202127F5540147823E2786AF274201829
:0E9F2D00F27A02D204127F554001C3D0F02216
:10999000C0F07821E2F5F078697402F27A01D2041D
:1099A000D202127F55402778697A04129DF3401E37
:1099B000D3E56870197869E265F0701208E2640214
:1099C000700C08E2F5F07823E265F07001C3D0F086
:0199D0002274
:109CB500C0F07821E2F5F078697404F27A01D204F3
:109CC500D202127F55401E78697A04129DF3401521
:109CD500D3E56870107869E265F0700908E26404FC
:089CE500700308E2C3D0F02275
:109A5200C0F0786AF28022C0F0786AF27831E2705F
:109A62001875F0FE78697A00D202127F55500A7595
:109A7200F0FE7A00D202127F557821E2F5F0786981
:109A82007440F27A02D204127F554001C3D0F02210
:109A9200C0F07821E2F5F078697401F27A01D2041B
:109AA200D202127F55402578697A04129DF3401C38
:109AB200D3E56870177869E265F0701008E2640116
:109AC200700A08E2540F7001C3E28001E4D0F02270
:106E0600B46301B35079C0F0C313C0D075F00080ED
:106E16000424FB05F0B4050050F7D0D033C445F088
:106E2600C4D0F07866C0E0126E8AC0E0C0F01211DD
:106E360047A2F2D0F0D0E0400530060254EFF2D07F
:106E4600E018B40F01B35013C0E0C0F0121147A20E
:106E5600F2D0F0D0E0500474FF8018C4126E8AC0DD
:106E6600E0C0F0121147A2F2D0F0D0E040053007A2
:106E76000254EFF280097865F4F208E5F0F4F2C204
:106E860007C20622C0E0C0F0121147A2F2D0F0D02D
:106E9600E04015540F04832212B71C34B17050B66B
:106EA60010B090515A1558D8540F04832212DB1C87
:0D6EB60058D170305B105111B03698343552
:10A4FB00C04275427C8542A07863E2D0428542A07F
:0DA50B00B4FD028003B4FE03D38001C3221F
:10A51800C04275427C8542A07864E2D0428542A060
:0DA52800B4FD028003B4FE03D38001C32202
:100CC900C042C0F075427C8542A0C0D0F5F0030354
:100CD90054032435F8E5F0540312101FC4F5F0E26B
:100CE900D0D05007C5F0F455F0800245F0F2D0F0AD
:060CF900D0428542A0225A
:10A04B00C042C0F075427C8542A0F5F00303540377
:10A05B002435F8E5F0540312101FC4F5F0E255F067
:0CA06B00D36001C3D0F0D0428542A02297
:10A0CF00C042C0F075427C8542A0F5F003035403F3
:10A0DF002435F8E5F0540312101FF5F0E255F0D3D4
:0BA0EF006001C3D0F0D0428542A022E7
:10A75800C04275427C8542A0540F2441F8E2D042A1
:04A768008542A02264
:10A76C00C04275427C8542A0540F2451F8E2D0427D
:04A77C008542A02250
:10A78000C04275427C8542A054032439F8E2D0428D
:04A790008542A0223C
:10A80B00C04275427C8542A0E4243DF8E2D04285EB
:03A81B0042A02236
:10A37500C042C0F075427C8542A0540712101FF5FB
:10A38500F07832E255F0D37001C3D0F0D042854267
:02A39500A02204
:10A39700C042C0F075427C8542A0540312101FF5DD
:10A3A700F07833E255F0D37001C3D0F0D042854244
:02A3B700A022E2
:10A71800C04275427C8542A07832E233B37834E295
:06A72800D0428542A02290
:10A79400C04275427C8542A054072429F8E2D04285
:04A7A4008542A02228
:109DF300C3C201127E0D4026E5F04401129B1240BE
:109E03001D20011A756800C3EA6013147001D31290
:109E13009B15200109F22568F568081A80E9027F7D
:019E23008EB0
:107F5500C3C201200313127E0D402EE5F054FEF539
:107F650068129B124023200120C3EA6012E22568B3
:107F7500F568E2129B12401120010E081A80EA30C2
:107F85000407E568F404129B127201400320020302
:0F7F9500127E6050031298CAC204C203C20222B5
:1098CA0020951AC294800080008000800080008069
:1098DA0000800080008000800080008000D295D245
:1098EA0094756700209405D567FAD201A094A095D3
:1098FA00800080008000800080008000C204C203D3
:03990A00C2022274
:107E0D0020951AC294800080008000800080008040
:107E1D0000800080008000800080008000D295D21C
:107E2D0094756700209405D567FAD2018000800013
:107E3D008000800080008000C2958000800080005E
:107E4D008000800080008000800080008000C2944F
:037E5D007201228D
:107E6000C294C29580008000800080008000800065
:107E700080008000800080008000D2947567002020
:107E80009405D567FAD201800080008000800080D0
:107E900000800080008000D29500A09580008000C6
:107EA00080008000800080008000800080008000D2
:037EB0007201223A
:10A8CA00740AC3C201127E605003D5E0F50298CA29
:109B1200D3800274FF7B0980008000800080008077
:109B220000800080008000800080003392958000D9
:109B3200D294756700209405D567FAD2018000A2FD
:0E9B4200958000800080008000C294DBCA2263
:107F0500E4F557F5585321EC756C7F746412008CB9
:107F1500127B65127B65E52A70028008752A00745C
:107F25000802AA79740978FDB6A52308B6A51F0825
:107F3500B6A51BE581B4FD01B3740A5011E511B472
:107F4500A4005005B47100500375117180C580CC33
:107C3900E47821F208B845FBC239C23AC23B855003
:107C4900F012AA06127B6912AAA5655060F6855042
:107C5900F012AA067F007921127B69E3F809E3098A
:107C690048700BEF04FFB41101B340EC80D6191929
:107C7900C3E39401F3F809E39400F3094870E4EFCE
:107C8900B40F01B35005125D268007B41004C23A3F
:097C99008000EF232423F980CAC6
:10A07700B41101B35025232421F8C04275427D85D0
:10A0870042A0E5F07003048003121659F208E5F0C8
:0CA09700600312167FF2D0428542A02226
:10A5A600B41101B35015232421F8C04275427D85AC
:0CA5B60042A0E4F208F2D0428542A0224C
:1080DF00B41101B3501A232421F8C04275427D8593
:1080EF0042A0D3E2700508E27001C3D0428542A0DE
:0180FF00225E
:10A8DA00E56F541FF40425572323257012A5A622D9
:10A6A900C0E012A17AE56F541FF40425572323252E
:07A6B90070D0F012A077221F
:0FA92700E56F541FF4042557232325700280DFAA
:08AAF400741012A5A6C23A225B
:10A86800700302AAF4F5F0741012A077D23AC23934
:01A8780022BD
:10658400752B01E54320E7028068E543B489028066
:106594000DB48E028008B490028003B48A02805243
:1065A400120F1E757000C0131223C8D01360102080
:1065B400E7062544F5448007F404C32545F545E57D
:1065C4004320E618B48C02800AB48B028005B4869A
:1065D400088009E5F0700E8003B48D090570E5703C
:1065E400B4040040C1757000120F2F50B9120F1E71
:0A65F4008000752B01C22C0262C763
:109B8E007E3112A94450FB7E3012A94450FB7E6BED
:109B9E0012A94450FB7E4612A94450FB7E2A12A9FC
:109BAE004450FBE5572440FE12A94450FBE55824CF
:0D9BBE0040FE12A94450FB75F000029FC448
:10791A00740C12A8FAE583547F752B01F565C4121D
:10792A00AAB0FE12A94450FBE56512AAB0FE12A93C
:10793A004450FB740C12A8FAE582752B01F565C454
:10794A0012AAB0FE12A94450FBE56512AAB0FE12B3
:10795A00A94450FB7E3A12A94450FB740A12A8FAB1
:10796A00E583752B01F565C412AAB0FE12A944502D
:10797A00FBE56512AAB0FE12A94450FB740A12A8CC
:0A798A00FA8582F0752B010277FAEE
:107790007E0080097E0175F0FF80077E01E493A3DF
:1077A000F5F0E493F8E655F0C5F0D313C5F04003C7
:1077B0000380F5F5F0EE604285F065E565C2D575AC
:1077C000F06484600A2430FE12A94450FBD2D5E54F
:1077D0006575F06484E5F075F00A8420D5026008D0
:1077E0002430FE12A94450FBE56575F00A84E5F0EB
:1077F0002430FE12A94450FB801A85F065E565C46B
:1078000012AAB0FE12A94450FBE56512AAB0FE12FE
:0A781000A94450FB75F000029FC46C
:10A4A100800A7E0090A4B312A67B50F875F00002DA
:0FA4B1009FC4203C424554412D6D6A62303E00ED
:10A1F600905C1075F020E0F46019F46016C0F0C0B1
:10A2060083C082FE12A94450FBD082D083D0F0A333
:09A21600D5F0E375F000029FC4CD
:107BCF00E493F565740E12A8FAE565B401065582C3
:107BDF0060428049B40206558270398040B4040671
:107BEF00558270308037B4080712A8314026802D97
:107BFF00B410065582601D8024B44006558260146F
:107C0F00801BB480065582700B80127E3F12A944F0
:107C1F0050FB80107E2B12A94450FB80077E2D1243
:0A7C2F00A94450FB75F000029FC449
:10A844007E30303F027E3112A94450FB75F0000285
:02A854009FC49F
:10A5C200E493F8E675F00AA424E1F582E43413F585
:0CA5D2008375F001800375F000029FC447
:10A0FA00E493F565740193F8E6F8E56512A5E04086
:10A10A00030255B47E0090A11E12A67B50F875F08A
:0BA11A0000029FC44261644B657900A5
:10A8EA0020E70575F0008005AE6475F002029FC48A
:1070B30030E702802CE49314FEA3E493F565127B7E
:1070C30065EEC0E00412AAE4D0F0EE600E129EB1A9
:1070D300AEF050EA05F0AEF0D565E375F00002714D
:1070E30062301F028022127B65127372500280028B
:1070F30080F4EEB4910A75F001909082D21F805F04
:1071030054F0649060E08054E493FEA3E493F56547
:10711300127B653013FAEE8565F0D225129844127E
:107123007B65301502800C3026F5EE8565F07871AD
:1071330012A91812737250028000EEB40D027E126F
:10714300127B653013FA12AB10F5F0128096E4123D
:10715300A29875F00190907DC21F800375F08002A4
:027163009FC4C7
:1055A400301F02800320E74F1256D4403A12A6C09F
:1055B400752B01E5659013651210E27404938EF067
:1055C400A4FE752B01E5659013651210E274059332
:1055D400F5F0740693F58285F08312A67B50E330D0
:1055E4001F0302568F800A7E0090573912A67B5003
:1055F400F875F0000256D1301F0302568F127B65F6
:105604001273725002800280F4EEB4920A1256D4DD
:1056140012A6C0EE048018B4930A1256D412A6C07F
:10562400EE14800B54F0649060D3C21F0256CE1265
:105634005701FE1256D4C0E0C0F0E56DB4503EE50B
:105644006E600114C082C08354039053A060119013
:1056540053B115E0600A9053D615E060039053E609
:10566400E044C0D234F0A3E0D2E6D2E58EF030F1CB
:1056740002C2E530F002C2E6F0D083D082D0F0D08E
:10568400E012A15075F080D21F804275F0807E1226
:10569400C21F803920E7030255F5301F030255F578
:1056A4001256D48E6512A6C0E565B41214EE3020ED
:1056B400086015D218C220800F700DD218D2208035
:1056C40007EEC2207002D220AE6575F080029FC43E
:1056D400855E82855F83740193FDF56EE493F565C1
:1056E400F56D9013651210E24012E493F5F0ED604D
:1056F400011425F0FD740193F5F0EDC322FD855EE0
:1057040082855F83E493F5659013651210E240246B
:10571400740293F565740393F5F0EDB4FF02801100
:10572400B56500400CB5F001B350028006E5658014
:0C57340002E5F0C3224261644B6579007D
:107FA40020E70575F0008044301F02800DEEB41206
:107FB400028005C220754700802F10200CD2207E3D
:107FC4001375F0019090BC8023127B65127372507C
:107FD40002800280F4EE64C360037547007E12756C
:0F7FE400F00190907DC21F800375F080029FC452
:106D1D0075650C20E705802275650420E722E49354
:106D2D0014F57012A3B930E305906DEC8003906DEE
:106D3D00F985704775F001026DE975F000026DE996
:106D4D00E4C547FE7025127B6512737250028002F6
:106D5D0080F4EE54F0649070128E47740E12A8FAFF
:106D6D00E58220E0DBD21F7E12805B855E82855F2F
:106D7D0083E49314F570300C0280028021EEB4B7D9
:106D8D000912A3B9A2E37402803EB4B81112A3B9DB
:106D9D00A2E3C2E36402702EE565C2E3802A127C91
:106DAD00A250028021EEB4941512A3B975F006B469
:106DBD000E028012B40F05127D62408A8013B492C8
:106DCD00058565F0800B8011D21892E3F5F0129ACB
:106DDD00D2740012A6A9026D5375F080029FC420D3
:106DED008F018C01FD9CED02008D01FF8C01208F28
:096DFD00018D01FD9CED0100FF78
:109CED008547707E2A127CA25002801F12A3B97E76
:109CFD0073640E6016640160127E726409600C302C
:109D0D0040077E6F12A3DB40027E7812A94450FB00
:069D1D0075F000029FC476
:1099D10030E70575F0808024E49314F57012A352EA
:1099E100EE601312A3B930E30D640E6009640160E7
:1099F10005909A098003909A0075F001029FC4298D
:109A0100204F6666202020FF292053687464776EFA
:019A1100FF55
:100E1E00E49314F57012A3B9F5F0900EC7B40E0258
:100E2E008077B40F028072129F3B501965F030E349
:100E3E001465F0C0E0C0707E00900EAD12A67B501F
:100E4E00F8D070D0F0E5F030E322127CA250028090
:100E5E0005900EBA8043900EB3803E127CA25002D3
:100E6E008005900EC48032900EBD802D900EE6B49B
:100E7E0005028025B406028020127CA25002800555
:100E8E00900ED78014900ED0800F127CA25002804C
:100E9E0005900EE28003900EDB75F001029FC450A8
:100EAE00656E6420004C6F636B6564204F6EFF4C63
:100EBE006F636B6564204F6EFF53687574646F7754
:100ECE006EFF4C6F636B6564204F6666FF4C6F63FD
:0F0EDE006B6564204F6666FF5265626F6F74FF2D
:107D0B00E49314F57012111720F206907D3C30406D
:107D1B001A12A3DB907D4020E111907D5B500C305B
:107D2B00E009907D4920E303907D5275F001029F9D
:107D3B00C44E2F41FF4E6F205273706E73FF4F6E08
:107D4B0053204661696CFF4F6666204661696CFF84
:077D5B004E6F726D616CFFB9
:10682800E49314F57030E71D7401937006200B0390
:106838000268F6E570B4FE08E56F541FF4042557A6
:10684800129C7C802012A3DB500C30E00990690E6A
:1068580030E1030268FB12111790690A20F603025F
:1068680068FB127AF5500E90690130F4030268FB58
:1068780090690A807EF56585F047E57020E713E5A5
:1068880065700F12A3DB20E40912A3B990691730D1
:10689800E361856565E565C2D575F06484600A24A1
:1068A80030FE12A94450FBD2D5E56575F06484E545
:1068B800F075F00A8420D50260082430FE12A9443D
:1068C80050FBE56575F00A84E5F02430FE12A94412
:1068D80050FBE5470303540390691E600F9069233A
:1068E80014600990692814600390692D800575F07B
:1068F80000800375F001029FC44F7665724C6F618A
:1069080064FF4E2F41FF4E6F205273706E73FF4E1F
:106918006F74204F6EFF2E303041FF2E323541FF0D
:0A6928002E353041FF2E373541FFB8
:1075E500E49314F5F0E56F541FF404255765F08016
:1075F5000512A4FB500590766980630460F814C0F9
:10760500E003547FF565856565E565C2D575F0646C
:1076150084600A2430FE12A94450FBD2D5E5657575
:10762500F06484E5F075F00A8420D5026008243002
:10763500FE12A94450FBE56575F00A84E5F0243097
:10764500FE12A94450FB7E2E12A94450FBD0E07EC9
:107655003030E0027E3512A94450FB90766D75F00E
:0F76650001029FC44E2F41FF204465672043FF61
:10A21F00E49314F57012A37540097E2A12A94450D5
:10A22F00FB8010E57012A794C40312AAB0FE12A906
:09A23F004450FB75F000029FC4BD
:101DBD00E47821F208B8CBFB7520007A0F7B007810
:101DCD0021F2047822F2AD461222241220D775F0AA
:101DDD00401221D81221EC12220012227E1222B1C1
:101DED00D206AF50127B69ED65466005AD461222F5
:101DFD0024300603122312EF6550603BAF50784339
:101E0D0075F004E260060460031414F208D5F0F3D3
:101E1D00787B75F010E260060460031414F208D5A7
:101E2D00F0F37822E214F2700B7410F2A20572181E
:101E3D009218C205127B69E56F54E070028005753A
:101E4D00F00F800375F003EA0455F0FA75F04B12AC
:101E5D002013FB04700B75F06B122013D2E7F28088
:101E6D008375F08B122013A2E3B39201A2E29202CA
:101E7D0075F0BB122013A2E3920375F05B122013D1
:101E8D0030E018C2E0F25478F58375F06B12201330
:101E9D0054874583F230E00312205420021575F06B
:101EAD006B12201330E16CC2E1F275F07BE412206D
:101EBD001B8060EB12A375EB12101FF5F07821E279
:101ECD0055F06001B3504C601DE2C5F0F455F0F2D1
:101EDD001220D775F0031221D81221EC75F047743A
:101EED00FF12200A802DE245F0F212238F75F02BA0
:101EFD001220025407F5F012211E12218C1221AA74
:101F0D0075F0001221D81221EC75F04774FF1220E4
:101F1D000AD21875F06B12201330E11975F07B128F
:101F2D002013700E75F06B12201320E705D2E7F227
:101F3D00D218021DF175F07B122013701B7405F27F
:101F4D00122024EE5478F58375F06B12201354870C
:101F5D004583D2E0F21220B175F06B12201330E000
:101F6D0038652030E333652030E228EA12A3C5C27C
:101F7D00E36403701EEA12A5A6EA75F003B203A28C
:101F8D000392F3129ADED21875F06B122013C2E28F
:101F9D00F2800612209C12204230023B75F08B120B
:101FAD00201330E63275F06B12201320E60975F020
:101FBD00AB122013B4FF20EA12A76CFE75F0AB1222
:101FCD002013F9EEB4FF0114F2696002D20575F029
:101FDD006B122013C2E6F230021875F04312200284
:101FED0070107405F275F027122002542060031250
:101FFD00220D021DF1EB540325F0F8E222F8EB540B
:10200D000325F0C8F222EA540F25F0F8E222F8EA8F
:10201D00540F25F0C8F222C0F0EA5403F5F0EA128D
:10202D00A04B92F3EA12A0CF92F4C2F5C2F6C2F71A
:10203D00AEF0D0F02275F06B122013C2E0F275F005
:10204D007B740512201B2275F0AB122013C2D560D4
:10205D0005046002D2D575F06B122013A2E7920031
:10206D00C2E720E11330E00E30E30530E40A8006CC
:10207D0020E40520D5028002D2E7F2A2E73000016C
:10208D00B330020672059205800472189218222050
:10209D000303C38001D3EA120CC975F06B12201330
:1020AD00C2E2F222EB5403F583EE20E71C5407C481
:1020BD004283785B794B75F010E365837006EE54BF
:1020CD0078D2E0F20809D5F0F022784B796B758360
:1020DD0000E26B540F702EE56F54E070028011E535
:1020ED008375F00484C5F0600375F0FFC5F0800AB8
:1020FD00E583B40301B3400274FFF2E3C2E2D2E11F
:10210D00C2E0C2E7F308090583E583B410C3C20436
:10211D0022C0F075820075F027122002541060085D
:0E212D0075F03F122002F582D0E004C454F099
:10213B00F583E56F54E070028009EB540375F004EE
:10214B00A48003EB5403F5F0244BF8E5F0246BF972
:10215B00EB5403F5F0E5F0F2E58213F582E372043C
:10216B0092E2C2E1C2E0C2E7F30809E5F02410F500
:10217B00F0E8645B6008E58365F054F070D7C20447
:10218B002275F033122002F583789B794B75F01092
:10219B00E36B540F7003E583F20809D5F0F2227557
:1021AB00F02712200254C02323F58375F02B122045
:1021BB000254F844044283788B794B75F010E36B2F
:1021CB00540F7003E583F20809D5F0F222787B797E
:1021DB006B758310E320E003E5F0F20809D583F477
:1021EB002278AB796B75F010E320E00374FFF208F3
:1021FB0009D5F0F422784775F00474FFF208D5F096
:10220B00F922EB12A80BFE75F047122002F9EEF241
:10221B00696005300B02D20522788B796B758300D0
:10222B00E56F54E070028008E58375F00484800844
:10223B00E583B40301B3502B12101FF5F05546C3C1
:10224B007001D3E492E3F2E56F54E060028008E59D
:10225B00F0C45546C37001D3E292E24004A240920F
:10226B00E480027408F27402F308090583E583B471
:10227B0010AE22786B758300E56F54E07002800816
:10228B00E58375F004848008E583B40301B350083B
:10229B0012101F5546D37001C3E292E3F208058377
:1022AB00E583B410D32212AB0AC0E0757010157021
:1022BB00746B2570F8E220E30A75F003E570129A4F
:1022CB00DE803A75F00BE570129ADEE56F54E07024
:1022DB0002800CE57075F004840412AA618008E595
:1022EB0070B40301B3500EC07053700312AB33D0F4
:1022FB0070EE20E10875F003E570129ADEE5707060
:10230B00ADD0E012AA6122E558700302238E12AB06
:10231B000AC0E07570101570E56F54E0700280080C
:10232B00E57075F004848008E570B40301B3504880
:10233B0012101F55467041E57012A3C5C2E3B400DD
:10234B00028035B40332E56F54E07002800CE57007
:10235B0075F004840412AA618008E570B40301B31C
:10236B005016C07053700312AB33D070EE30E108CF
:10237B0075F00BE57012972BE570709AC206D0E0E2
:10238B0012AA6122740575F02312200A74BD75F030
:10239B002712200A741B75F02B12200A746E75F02D
:1023AB002F12200A742875F03312200A740075F06E
:0D23BB003F12200AEB12A3979204D2D52204
:10A2480092D5E56F541FF404255723232570A2D512
:10A2580092D5B40301B35010C0E012101FC420D52A
:09A2680005F4D0E08002D0E022F0
:107D6200C0F0E5F0B40102803D12A3B9B40A02806A
:107D720041B40202803C129F3B502BB40414D0E069
:107D8200C0E06405600464037006D0E0740CC0E0D7
:107D9200800AB40A02801BB402028016D0F0C0F03E
:107DA20012A17AD3800DD0F0C0F0740012A6A9D32C
:067DB2008001C3D0F022A5
:109F3B00E56F541FF404255723232570C0E01280CE
:109F4B00DF92D5D0E0C04275427E8542A0540F24EB
:0E9F5B00BBF8E2C4540FD0428542A0A2D5222A
:10A17A00E56F541FF40425572323257053F00FC0AD
:10A18A004275427E8542A0540F24BBF8E2540FC4A4
:0AA19A0045F0C4F2D0428542A02235
:10A3B900E56F541FF404255723232570C0427542C5
:10A3C9007E8542A0540F24BBF8E2540FD042854247
:02A3D900A022C0
:109AD200E56F541FF40425572323257053F00FF824
:109AE20075837E540F24BBF582E0C0E054F045F04C
:109AF200F0D0E065F0601820E30F65F0C2E3640285
:109B02006007E5F0C2E3B40206E52A6405600022BC
:10972B00540FC0E012A186121147741030F002746E
:10973B0008D0F0C0E0E5F0232421F8E56F541F605A
:10974B000914C0F075F004A4D0F025F0D0F0A424D7
:10975B0014500205F0C04275427D8542A0F208E527
:08976B00F0F2D0428542A02279
:105D2600540FF57012AB0AC0E0E56F54E0700280C4
:105D36000AE57075F004840412AA61E570129F47A3
:105D4600C0E0E57012A3C5D0F0C0F0B5F003025E66
:105D560047B40E028003B40F0AC3E57012A258D2EC
:105D660018805030E35620F353E56F54E06002800C
:105D760008E570B40301B3503AC07053700312A320
:105D860052D070EE602DD0F0C0F0E57012A1868E74
:105D9600F0E57012A077D0E0B4060575F00E80032A
:105DA60075F00FE570129ADED218D3E57012A2587C
:105DB600025E78E57012A3C5D0F0C0F0B40602D238
:105DC60018C0E0E570129ADED0E0D0F0C0F065F0C1
:105DD60030E36ED21830F32CE56F54E06002800891
:105DE600E570B40301B35055C07053700312AB1F76
:105DF600D070D0F0C0F0E57012A1868EF0E570127A
:105E0600A0778039E56F54E060028008E570B4033E
:105E160001B35029C07053700312AB29D070D0F073
:105E2600C0F0E57012A186EE700CA8F0B8060274F8
:105E360001B805027401F5F0E57012A077D0E08094
:105E460031D0E0B406027405B4051275F00DE570A4
:105E560012A186E57075F00012A0778015B40D12B8
:105E660075F00CE57012A186E57075F00012A0774A
:085E76008000D0E012AA6122B5
:10A3DB00E56F541FF404255723232570C0427542A3
:10A3EB007E8542A0540F246BF8E2A2E7D04285424F
:02A3FB00A0229E
:10111700E56F541FF404255723232570C0427542F9
:101127007E8542A0540FC0E0248BF8E2F5F0D0E0B2
:0D113700249BF8E2D0428542A090000022E7
:107AF500E56F541FF404255723232570C0427542B2
:107B05007E8542A0540FF5F0248BF8E2C5F024AB36
:107B1500F8E2D0428542A0B4FE004013B4FE0874DA
:107B2500FF75F01FD3803874FF75F00FD38030C513
:107B3500F05403B4020EE5F02323540CC5F00303FF
:107B4500543F801AB4030DE5F0C4035408C5F0038F
:107B5500547F800AB40005E4C5F0800280C9C322C1
:109C7C00C04275427E8542A054032447F8E2D0428C
:109C8C008542A0B4FE004013B4FE0874FF75F01FAB
:109C9C00D3801574FF75F00FD3800DF5F02323548A
:099CAC000FC5F00303543FC3226D
:0165FE00227A
:10A01E005403F875837E742728F582E05410601B74
:10A02E00743F28F582E5F0F0743B28F582E5F0F4F4
:0DA03E00F0743728F582E4F0C38001D322CE
:107CA200C0F0EEC0E075F001E56CB47F0280518552
:107CB2006CF0740030F602240830F502240430F42B
:107CC20002240230F3022401F5F0E57012A2BFF59E
:107CD200F0E56C5407600CC0F0F5F0D0E023D5F06D
:107CE200FCF5F030F707E5F075F001801312A3B947
:107CF200D2E3B40A0575F000800675F000C3800176
:097D0200D3D0E0FEE5F0D0F02240
:0DAA2D00764108764C08764C087600082229
:07AAFC00762E087600082207
:0DAA3A00762E08E5572440F6087600082225
:10A74300762E08E5572440F608E57054072431F6C1
:05A75300087600082259
:1097730012A2E6780812AA3A780875F0081297BA86
:109783004031780812AAFC780875F0081297BA409D
:109793002212A97C780875F00812A6D6780875F00D
:1097A300081297BA400D780812AA2D780875F008A8
:0797B3001297BA752B012289
:107DB80012A2E6A813E6B42E02802A12A7A8780811
:107DC80075F00812A6D6780875F0081297BA4031EF
:107DD80012A7D0780875F00812A6D6780875F008AA
:107DE8001297BA401C780812A743780875F0081251
:107DF80097BA400D780812AA2D780875F0081297DE
:057E0800BA752B0122F8
:1023C800E543B4860C7400126A36E543407F022464
:1023D80050B48D0B7401126A36E54340708069B4BD
:1023E800890812AB687400C3806CB48A081265FF50
:1023F8007400C38061B48B1175F00012AB6A70036E
:1024080075F003E5434046803FB4900812AB697409
:1024180000C38042B48E0812AB677400C38037B41F
:102428008C1175F00012AB6B700375F003E5434037
:102438001C801530E71C30E60302281E300C028091
:1024480019E557147014800A7401D3800974FFD3F6
:102458008004E4C38000752B0122E543B48F030296
:102468002556B48401B350E5540F0404F5F0838075
:10247800058DC9064661C0E0E5F083800524242562
:102488002525C0E02290400874FEF074121211084D
:10249800C0E0C0F0E5838582F090598FF0905990A4
:1024A800E5F0F0D0F0D0E075F010122989D235535C
:1024B80021ECD20C780875F008129E5512A9A68056
:1024C80087904008742812110874FEF074121211D3
:1024D80008C0E0C0F0E5838582F090598FF09059EC
:1024E80090E5F0F0D0F0D0E075F010122989D235DF
:1024F800780875F008129E5512A9C202245090401F
:1025080008742812110812110874FEF074121211BE
:1025180008C0E0C0F0E5838582F090598FF09059AB
:1025280090E5F0F0D0F0D0E075F010122989D2359E
:10253800780875F008129E5512A9DE022450747AA4
:10254800A81375F01012A918752B010224501297C0
:1025580073400602245A02245512A1A450F812A26C
:102568007150F3E543648F600302260490852D12B1
:10257800102C30E70302276D90853712102C30E7B6
:102588000302278590853E12102C30E70302272F7F
:1025980090854812102C30E7030227429085541288
:1025A800102C30E7030226E790855F12102C30E7E5
:1025B800030226F390856B12102C30E7030226FFE6
:1025C80090857612102C30E703022710908582122E
:1025D800102C30E70302275490858E12102C30E718
:1025E8000302275990859B12102C30E7030226AF6F
:1025F8009085A212102C30E7030226B375F00AE585
:1026080043648F600375F00EE5F012A8FAC082C02B
:1026180083E5F0240212A8FAC082C08374FFFAFB93
:10262800A8131227B440748813B43A06AA82AB835D
:1026380080EED0E05BFBD0E05AFAD0E05283D0E0E5
:102648005582C0E0C083EAC0E0EBC0E012A271503E
:102658004AE4FAFBA8131227B440408813B43A0698
:10266800AA82AB8380EED0E04BFBD0E04AFAD0E000
:102678004283D0E0428275F00AE543648F600375B7
:10268800F00EE5F012A9098B838A82E5F024021284
:0B269800A909129B50752B0102245071
:1026A30074FC2581F581752B01022455C2D5800266
:1026B300D2D5881312A27150F0A8131227B440E99F
:1026C300881353820FC0D0C082740C12A8FAE5821B
:1026D30054F0D0824582F582740C12A909D0D0122D
:1026E30027E680B3D2D51227E6740C1227FE803476
:1026F300D2D51227E6740C1227FE8020740C12A880
:10270300FAE58230E405740C12280E8017740C125B
:10271300A8FAE58230E405740C12280E740A122814
:102723000E02269A740A1227FE02269AE557655866
:10273300700D740A12A8FAE583D2E5F583800B7451
:102743000A12A8FAE583C2E5F583740A12A909807F
:102753002E75F0FF800375F000757000E57012A010
:102763001E0570E570B404F48015E56F54E0700243
:10277300800AE56F541FF40425577003124DDA02E3
:102783002450E56F54E07002800AE56F541FF4048F
:10279300255770EB740A12A8FAA882A983740C1245
:1027A300A8FAAA82AB83120A90752B0150D1022496
:1027B30055E4F583F582E608547FB420028007B41C
:1027C3003A0280027002C322129E8340FAC582C479
:1027D300C0E054F04282D0E0540FC583C454F042A9
:1027E3008380D3C0D0740C12A8FAD0D0E58254EF02
:1027F300A2D592E4F582740C02A909C0E012A8FAEA
:10280300E582440FF582D0E002A909C0E012A8FADC
:10281300E58254F0F582D0E002A909127DB84003A5
:1028230002245A127CA24002800E600CE56CB402B2
:10283300028005400302245AE543540F603A127C98
:10284300A250030228F2E543540FF5F0B404111229
:10285300A3B975F004640E60046401700300802161
:10286300127D62500E300A0BC070740212AA84D01B
:10287300708013400C0228F212A3B920E30302284C
:10288300F2200A02806612A0A3C0707E2C12A94413
:1028930050FB7E2B12A94450FB7E2C12A94450FB03
:1028A300D070E570F5F012AA067442C07012789DDC
:1028B300D070E543540F701BC0707E2C12A9445096
:1028C300FBD070E570F5F012AA067443C07012785D
:1028D3009DD070C0707E5D12A94450FB7E0D12A97D
:1028E3004450FB7E0A12A94450FBD07002245020AE
:1028F3000A02806612A0A3C0707E2C12A94450FB6A
:102903007E2D12A94450FB7E2C12A94450FBD0709B
:10291300E570F5F012AA067442C07012789DD0706B
:10292300E543540F701BC0707E2C12A94450FBD09A
:0829330070E570F5F012AA0630
:10293B007443C07012789DD070C0707E5D12A94434
:10294B0050FB7E0D12A94450FB7E0A12A94450FB8A
:05295B00D070022455BC
:011144002288
:011145002287
:011146002286
:0DAA47008EF0C0F0129887EED0F0AEF02235
:07AB0300E57024A4F8E6222E
:10A81E00C0F0C0E012114730F304D0E0C0E0D0E049
:03A82E00D0F02245
:0165FF002279
:01AB670022CB
:01AB680022CA
:01AB690022C9
:01AB6A0022C8
:01AB6B0022C7
:10A2BF00C083C08254039053A160119053B215E034
:10A2CF00600A9053D715E060039053E7E5F0121141
:07A2DF0008E0D082D08322C9
:10A12500700EC21ED21D9095A912A7F8C21D801AE5
:10A13500C0E0C0F090598FE0F5F0905990E0F582BD
:0BA1450085F083D0F0D0E0120EED2278
:10789D00901395C0E01210E2D0F04069E5836005C9
:1078AD00120EED8067E5F0B4473C12AAA590537611
:1078BD00121108E054C0B4800575F06E8006B44016
:1078CD004475F066C0F07E4F12A94450FBD0F0E530
:1078DD00F0C0E0FE12A94450FBD0E0B4662EFE12BB
:1078ED00A94450FB8026AE82752B0112AAA58EF0FD
:1078FD0025F0F5F012AA06C21ED21D9095A912A769
:0D790D00F8C21D80077E3F12A94450FB22E6
:10A0A300C0707E5B12A94450FB7E2E12A94450FB64
:10A0B300E557142441FE12A94450FBD070E57024E7
:0CA0C30031C070FE12A94450FBD0702286
:107555007F00752000C20DC20E754300C2147F0066
:10756500754300752C005321EC756C7F127B6530DB
:10757500150280E820141912116D20E60F30310E26
:1075850030300BC2B1740212AA84D2B1C23180DC90
:10759500E543B4000280C5B4100280C03014BDC2FA
:1075A50039D211C21412A8AA548060030246D61219
:1075B5007B653013FA127B65E55024F0FE127B657E
:1075C50030140280CB3015028092302704EEB5507E
:1075D500ECE543B400028084B41003027561808C2D
:10A3FD00EF70028018129F694013752B0112AAA5E8
:10A40D00F54312AB4BD22C752B01C38004752B0178
:02A41D00D32248
:109F6900EF70028024E5502450FE127B6530150203
:109F7900801712AB4B202C028009752B01EEB550CE
:0E9F8900E98006752B01C38004752B01D322DD
:10622500C228C23FC227C22A752200756B007FFFB4
:10623500127B65752000536F1F740023C454E04220
:106245006F12115A20E409536F1F23C454E0426FA3
:106255007401F557536FE0541F426F120F1EE56F1F
:10626500C403540704F5587400FF740412AA847516
:1062750081E07400FF127B65C21420100280037553
:106285004310C20DC20E74B8F876FFC2B5756B0027
:10629500C239301011E543B410028008B4170280EA
:1062A50003754300C210127B65202809C2117401D1
:1062B500129C07D228740212AA8475F00012AB470B
:1062C500C215127B65202745301002804020280921
:1062D500C2117401129C07D22812A32F5023203F0C
:1062E5002C301129C22812AB15120D69401FF5F08B
:1062F500C0F0D2F77400129C07D0F0740DC20A806A
:1063050000547FFE12AB47C228D206C20774B8F804
:10631500E67003026F7A302C030265843010028028
:1063250016C239302711202A99D2B5756B0274B877
:10633500F87602D22A808B301003027418C2B51287
:0A634500AB10600312A5350262C719
:106F7A00E56BB4010302627DB4021674B8F876FFB9
:106F8A00756B00C206C207C227C22A754300026295
:106F9A008BB40307D21175F017802AB40407C2060E
:106FAA0075F0148020B40504D2068017B40605755E
:106FBA00F0158011B40704D2078008B4080575F0EB
:106FCA001180028026E5436440601485F043201056
:106FDA0002800CD215756B0174B8F8763C80147572
:106FEA00F0027400129C07C228D22774B8F876FF00
:066FFA00756B000262C786
:107418002011028013C211741C300A02740812A8C9
:1074280068203902C207D239752B0174B8F8E6F41E
:107438007002802AE56BB4040720B4028018801E0D
:10744800B4050730B402800E8014B40602800FB46D
:1074580007028002800874B8F876FF756B0074B86C
:10746800F8E6F46002804B752B0112AB10752B0106
:107478007002803E2010028039303907203A0474A7
:10748800038028300602800930B402800D7405801C
:107498001A20B40280047404801130070280068028
:1074A8000874078006740680028007F56B74B8F8C4
:0574B80076020262C72C
:10A53500852BF012A8BA754301752B01D214D210E0
:0DA5450012A8AA540F44C0F5F012A8BA22C3
:100D6900E589540F4410F589C28FC28E758D0075BF
:100D79008B00D28E308FFDC28EC28F758D00758B20
:100D890000756900756A00E5502414B55002802980
:100D990020B0F8D28E208F1130B0FA858D69858BFD
:100DA9006A208F0520B0FA80ECC28EC28F756D1350
:100DB900E56D900DEC93D56D05C211D38021B56910
:100DC9000280074011D56DE8800CE56D93B56A0185
:100DD900D34003D56DDAE56DC313F404240AC38542
:100DE900996D224000400180020005000A001400AC
:070DF90028005000B000C00B
:10A856007403C0E0740812A8FAD0E0B5820122029F
:02A866004DDAC9
:104DDA00C0A8C2AC9059D3787175F033E6F008A335
:104DEA00D5F0F91209BED23390125A780875F00834
:104DFA001210FF12A9A6901266780875F008121010
:104E0A00FF12A9C2901272780875F0081210FF12E8
:104E1A00A9DE90127E787175F0101210FF12A96E39
:104E2A0090128E780875F0081210FF12A98A757010
:104E3A000090129E780875F0081210FF12A7BC9015
:104E4A0012BE780875F0081210FF12A7E4057090D8
:104E5A0012A6780875F0081210FF12A7BC9012C6A5
:104E6A00780875F0081210FF12A7E405709012AEC8
:104E7A00780875F0081210FF12A7BC9012CE7808B5
:104E8A0075F0081210FF12A7E405709012B67808A0
:104E9A0075F0081210FF12A7BC9012D6780875F0A8
:104EAA00081210FF12A7E49012DE780875F00412B7
:104EBA0010FF7472780875F00412A9189012E2783B
:104ECA000875F0041210FF7476780875F00412A9B8
:104EDA00189012E6780875F0041210FF748A7808A0
:104EEA0075F00412A9189012EA780875F0041210E5
:104EFA00FF748E780875F00412A9189012EE7808DB
:104F0A0075F0061210FF7492780875F00612A91847
:104F1A009012F4780875F0061210FF74922406783D
:104F2A000875F00612A9189012FA780875F002129C
:104F3A0010FF749E780875F00212A9181229DB90E6
:104F4A0059A17400F09059B27400F090400874228C
:104F5A0012110874EFF0120A6A5008780079007A80
:104F6A00FF7B7F740A8882898312A909740C8A825A
:104F7A008B8312A90975F0FFE8A2E5B392F6E9A2BC
:104F8A00E192F3A2E3B392F4EBA2E592F2A2E692E3
:104F9A00F7740E85F0827583FE12A9097410758262
:104FAA00FF7583FF12A9097403129B50121147302F
:104FBA00F3097E0174F7780512A63212114730F40C
:104FCA000005A290540175F00415A290530178FFD0
:104FDA00E0A305A2F0A315A2D8F605A2758201D511
:104FEA00F0E715A29059D3787175F033E0F608A36B
:094FFA00D5F0F9D0A8852B822224
:10114700C082C083740A12A8FAE5828583F0D0832F
:03115700D0822221
:10115A00C082C083740C12A8FAE5828583F0D0831A
:03116A00D082220E
:10116D00C082C083740E12A8FAE5828583F0D08305
:03117D00D08222FB
:10118000C082C083740C12A8FAE5828583F0D083F4
:03119000D08222E8
:109B5000740C12A8FAE582C454F0F5468582F074BC
:109B60000A12A8FAE58220F400A2E4B39240A2E629
:109B7000920B540F4246E583C082C0831265FED02B
:0E9B800083D082E5828583F0B2F7852B8222A6
:0EA96000747A787175F01012AA13852B82227A
:0EA96E00747A787175F01012A918852B822268
:0EA97C00742A780875F00812AA13852B82221F
:0EA98A00742A780875F00812A918852B82220D
:0EA998007412780875F00812AA13852B82221B
:0EA9A6007412780875F00812A918852B822209
:0EA9B400741A780875F00812AA13852B8222F7
:0EA9C200741A780875F00812A918852B8222E5
:0EA9D0007422780875F00812AA13852B8222D3
:0EA9DE007422780875F00812A918852B8222C1
:10A7A800E57075F008A42432780875F00812AA1329
:04A7B800852B822249
:10A7BC00E57075F008A42432780875F00812A91811
:04A7CC00852B822235
:10A7D000E57075F008A42452780875F00812AA13E1
:04A7E000852B822221
:10A7E400E57075F008A42452780875F00812A918C9
:04A7F400852B82220D
:05AB1A00745002AB3D88
:05AB1F00743002AB3DA3
:05AB2400743002AB4299
:05AB2900743802AB3D91
:05AB2E00743802AB4287
:10A352007E0074E89013651210E24013740193F5C5
:10A36200F0E493257012A6C0EE60032410FEC385AC
:03A372002B822219
:10A4C00074E802AB429013651210E2400D740193E0
:0EA4D000F5F0E493257012A150C3852B822273
:05AB3300744002AB3D7F
:05AB3800744002AB4275
:05AB3D00A87002A5E074
:05AB4200A87002A6321C
:10A5DE0078007EFF9013651210E2400C740193F523
:0CA5EE00F0E4932812A6C0C3852B822243
:10A6300078009013651210E2400C740193F5F0E479
:0AA64000932812A150C3852B82223B
:10A8310012116D20F004A2E38005121147A2F085E8
:03A841002B822245
:10A6150012116D5410700F9052A0E0B47E028003A9
:0BA62500B4FE03D38001C3852B82220A
:10671500904008C8C0E0C87860F208E5F0F208D0FB
:10672500E0F275F000E070030267F0B4FF0C7860EA
:10673500E2547FB401F2C3026802C083C082C0F094
:1067450075F0107860E2548060047402800274026F
:10675500F8121108E012A4DEF0A3D5F0F7905991D4
:1067650075F010E012A4DEF0A3D5F0F7D0F0D082DA
:10677500D083E8C0E078707459F2087491F2D0E0E3
:10678500C083C082121108C0E0C0F0E5838582F0A5
:1067950090598FF0905990E5F0F0D0F0D0E074105A
:1067A500127994D082D08340427860E2547FB4025B
:1067B50003C3804978707459F20874A2F2C083C08B
:1067C500827412121108C0E0C0F0E5838582F09052
:1067D500598FF0905990E5F0F0D0F0D0E074101298
:1067E5007994D082D0834003C38012742812110893
:1067F50005F0E5F0B47702800302672AD3C0E0C054
:10680500F0E5838582F090598FF0905990E5F0F08E
:10681500D0F0D0E07860E2C0E008E2F5F008E2F8F8
:03682500D0E0229E
:10799400C8C0E0C87868F208E5F0F208D0E0F2C0A8
:1079A400E0C0F090598FE0F5F0905990E0F58285B1
:1079B400F083D0F0D0E07868E2786DF2786C7400EF
:1079C400F2C083C082786CE2121108E0F5F078709E
:1079D400E2F58308E2F582786CE2121108E0D082C5
:1079E400D083B5F0116010786CE204F2786DE21483
:1079F400F270CEC38001D37868E2C0E008E2F5F00B
:067A040008E2F8D0E022C8
:107A8000C0E0C0F0C22420F60512A41F405412AB7F
:107A900010F5F0D2F71280967E009089B712A67B7F
:107AA00050F8D0F0E5F0543FC0F0D224C223600972
:107AB00014C2246004D224D223D0F0E5F0C0F02018
:107AC000E705E55024F0FE127B6530150280132097
:107AD0002613D0F0E5F0C0F020E7ECEEB550E875E5
:107AE0004317D3800B7E00908AD512A67B50F8C333
:057AF000D0F0D0E022FF
:10A41F00C0E0E5502401FEC211127B6530150280A9
:10A42F000C30110280ECEEB550EFC38001D3D0E0B9
:01A43F0022FA
:10125A0061646D6E000000000000000067656E3179
:10126A00000000000000000067656E320000000008
:10127A000000000000000000000000000000000064
:10128A0000000000000000000000000053687574B0
:10129A00646F776E0000000000000000000000008C
:1012AA000000000000000000000000000000000034
:1012BA000000000000000000000000000000000024
:1012CA000000000000000000000000000000000014
:1012DA000000000000000000B0B0B0B00000000044
:1012EA00C0C7C0C0F0F070B0F0B0F0F0B0F0F0F0ED
:1012FA00FC00720F000F0A151972F0000F0A151977
:10130A008A0F000F0A15B976C001020A1445763011
:10131A0000030A146D92FF00FF0000009280000192
:10132A000614A9924000010614A9920100010614AC
:10133A00A98E0F00090A14B59E8000010A14959E11
:10134A004000010A14959E2000010A14959E10007F
:10135A00010A14959E0800010A14953012FC3813EC
:10136A0003E8130A401311501318FA1334F9131F20
:10137A00F61326F7132DF8133BFB1342FC1349FD12
:10138A001350FE1357FF135E00000041000842008D
:10139A00104300284400304500384600E847004022
:1013AA004800484900504A13DD4D90DB4E90E14F0A
:1013BA0090E75090ED5190F35390F95491045513DE
:1013CA00DD5691115790FF5800005990D55A005890
:1013DA000000004E2F41FF484F5354FF0000000009
:1013EA00004D4F44454DFF000000004E4554574FF5
:1013FA00524BFF0000535749544348FF0000004C2A
:10140A00494E4BFF0000000000434F4E534F4C45DE
:10141A00FF000053455249414C31FF0000534552E9
:10142A0049414C32FF000053455249414C33FF00B9
:10143A000053455249414C34FF00004E6F6E6520FF
:10144A0020202000004F6666202020202000004F28
:10145A006E2020202020200000556E7573656420C0
:10146A0020000041646D6E20202020000047656E38
:10147A003120202020000047656E322020202000E5
:10148A0000416C6C202020202000004E6F6E6520E9
:10149A00202020000044656661756C742000004FAE
:1014AA0066662000004F6E202000004E6F6E652099
:1014BA002020200000313530202020202000003359
:1014CA0030302020202020000036303020202020FC
:1014DA002000003132303020202020000032343009
:1014EA0030202020200000343830302020202000F6
:1014FA000039363030202020200000313932303097
:10150A0020202000003338343030202020000030E2
:10151A00303A30303A3030000030303A30303A31F8
:10152A0035000030303A30303A3330000030303A4B
:10153A0030303A3435000030303A30313A30300009
:10154A000030303A30313A3135000030303A3031FB
:10155A003A3330000030303A30313A343500003016
:10156A00303A30323A3030000030303A30333A30A4
:10157A0030000030303A30343A3030000030303AFF
:10158A0030353A3030000030303A31303A303000BD
:10159A000030303A31353A3030000030303A3330AA
:1015AA003A3030000030313A30303A3030000044BE
:1015BA00697361626C6564000020202030303A3122
:0E15CA0035000020202030303A333000002061
:1015D800202030303A3435000020202030313A3095
:1015E80030000020202030313A3330000020202005
:1015F80030323A3030000020202030323A33300088
:101608000020202030333A303000002020203033B2
:101618003A3330000020202030343A3030000020A7
:10162800202030343A3330000020202030353A3042
:1016380030000020202030363A30300000202020B2
:1016480030373A3030000020202030383A3030002F
:1016580000541F602183223C78B4F02C68A4E0D0A9
:10166800C0B060102040003C78B4F068E058D04822
:10167800C038B0A0908022541F602183220000004F
:101688000001010101020304090E1C3800000000DA
:1016980000010102020303040405050622EE547F3B
:1016A8006001832201020304000403080902000008
:1016B8000D00000000000001000200000000000012
:1016C80000000092000000000000000000009200EE
:1016D800930000000000000000000000000000006F
:1016E800920000000000B60091000000A30000B7BF
:1016F80000B400B5B194A400B8A10000C300000074
:10170800000093000000B60091000000A30000B79D
:1017180000B400B5B194A400B8A10000C300000053
:03172800000000BE
:1046D60000200A1612116D20E2107E0090905612EC
:1046E600A67B50F875434002574912A8314009305D
:1046F6000A06754340025740200A0C12AB10F5F02B
:10470600D2F7128096C224C23CC23DC23E756C7F6F
:10471600300A1A20B402800675434002574012A69A
:1047260015B3920F756C009040080248447402124B
:10473600AA847E00908AD512A67B50F8740E12A821
:10474600FAE58230E10A7E009086CB12A67B50F80D
:1047560075F00312AA06C224203C25D23CC23DD2E3
:104766003E7E00908AD512A67B50F87E009087F098
:1047760012A67B50F8127B653013FA75F00080158F
:104786007E009087E712A67B50F8127B653013FAFD
